:020000040000FA
:4000000000800010C90B0000C50B0000C50B0000C50B0000C50B0000C50B00005E39FFEF000000000000000000000000C50B0000C50B000000000000C50B0000C50B000087
:40004000C50B0000C50B0000C50B0000C50B0000C50B0000C50B0000C50B0000C50B0000C50B0000C50B0000C50B0000C50B0000C50B0000C50B0000C50B0000C50B000080
:40008000C50B0000C50B0000C50B0000C50B0000C50B0000C50B0000C50B0000C50B0000C50B0000C50B0000C50B0000C50B0000C50B0000C50B0000C50B0000C50B000040
:4000C000C50B0000C50B0000C50B000010B5054C237833B9044810B10448AFF300800121217010BD4405001000000000282D000008B5064B1BB106480649AFF30080064863
:40010000016811B1054A02B1904708BD00000000282D0000480500104405001000000000344B2022C3F8A021D3F8A001820603D5D3F8A0114806FBD5002003222E49C3F8D1
:400140000421C3F8A801C3F8AC010120C3F80C015522C3F88410AA21C3F88C10C3F88C20C3F88000C3F88C10C3F88C202148D0F888305901FAD50321AA225523C0F880109B
:40018000C0F88C20C0F88C30D0F88810194B11F0407FF9D02320C3F8A400AA2155220120C3F8AC10C3F8AC20C3F8A000C3F8AC10C3F8AC200F4BD3F8A8104A05FAD503229E
:4001C000AA205521C3F8A020C3F8AC00C3F8AC10D3F8A800074A10F4407FF9D0074B002043F23A01C2F8C430C2F8C8011160044A9060704700C00F4063000500DE87280495
:4002000000ED00E0034B196CC1F5002202600020704700BFA02C00002DE9F3414402B4F5007F0D4601D263489FE0B4F5C06F12D2614800F03FF9614800F03CF90023604A52
:40024000E95CA018C2180133A2F50070B3F5007F0170F4D1ABE0B4F5006F5ED25948002100F028F9554800F025F90023564EEF5CA019C2180133A2F5C061B3F5007F0F7087
:40028000F4D10025504E6F01B85DBC19E5280FD1601C4E49072201F091FE48B9DFF8608198F8002022B900F05FFC012188F80010638B032B0AD14648214600F0FBF83F481C
:4002C00000F0F8F802200022A076E276B95D01B3E5291ED0E27A0F2A11D13E4800F0EAF8364800F0E7F80026A15D3B48013600F0E1F8202EF8D1394800F0DCF806E0E06958
:40030000638B21460090364800F0D4F82B4800F0D1F80135102DB5D149E0B4F5084F1DD10023304A995821B10433242BF9D1002000E00120126802B180B12B492B4B2C48D5
:40034000196000F0B7F81D4800F0B4F800214FF48062244801F09CFD00F0DEFA23480268A418B4F5006F03D2224800F0A3F811E0214E316CA1F500631919A1F58030460A2F
:40038000B6F5806F13D8174C54F8262032B11B4800F090F8094800F08DF808E008464FF40072294600F040FB012144F826100020BDE8FC81EC26000014270000112700005F
:4003C000641500102D270000CC0000104A270000522700007327000098270000132700009E270000600500100080FFFF60150010DA27000028280000A02C000070280000D5
:4004000064190010400230B5034600F5007540F2FF12934224D8142B14D00BD8132B1BD11F4C626F1F4C02F60102246C121BC2F347222EE0B3F5FF7F02D093420CD125E0D7
:40044000552226E0164C626F164C02F60102246C121BC2F347421CE01D2B19D8124A03E0B3F5C06F02D2114A9A5C12E0B3F5006F05D2A3F5C064402C0AD80D4AF4E7094C93
:40048000226C9C18A4F50062127802E0AA2200E000220C1AE2540133AB42B8D1002030BD282C0000A02C0000A628000064130010CCFAFF0F0FB404B0704700F059BD000035
:4004C000174B0022F0B51A70164C174A174BF820256C1070586FFF21401B5170917000F60101CD0BAC1C03230135A34211D2AB4201D0591C01E040F6FF71CFB2C3F3032621
:4005000046EA07160909D3701671517102330332EBE7074B421CDA63BDE8F04000F0C4B964190010A02C000064150010282C0000CC00001008B5FFF7C0FF00F0F5FA08B149
:4005400000F006FBFFF7BCFFFEE70000014B00221A607047681B00102DE9F0419846012388F80030057816465E4A044668090F46115C8F4203D25C48FFF79CFF89E01B2D3F
:4005800000F08D801BD8032D2BD009D8002D40F089805648FFF78EFF5548FFF78BFF4BE0042D2BD0122D7DD15248FFF783FF5048FFF780FF2179242928BF242170E0282DE0
:4005C00024D009D8252D6DD14B48FFF773FF4848FFF770FF082163E02A2D2FD02F2D61D149E0464946480968FFF764FF4048FFF761FF2179122928BF122151E041486178E6
:40060000FFF758FF3A48FFF755FF48E0E278237AA078E579110443EA052541EA006360792279034343EA022137482A46FFF742FF2F48FFF73FFF6D02356019E0207AE37845
:40064000E579A27840EA05251904607941EA02632279034343EA02212C482A46FFF72AFF2348FFF727FF6D020021356088F800102748BDE8F0812748FFF71CFF1C48FFF759
:4006800019FF627802F00201C9B249B12248FFF711FF1748FFF70EFF0020BDE8F08100213160E5E71D48FFF705FF1148FFF702FF0025BD4208DA615D1948FFF7FBFE0C4841
:4006C000FFF7F8FE0135F4E71648FFF7F3FE0848FFF7F0FE094B4FF4A420186000203060BDE8F081C9290000002900001F29000011270000552900005D290000681B0010B9
:400700002F290000442900006B29000082290000651900109A290000A3290000B82900004F2900001327000073B5144602781B2A7FD014D8032A2FD009D8002A73D13E4B85
:400740003E49186800280CBF0846002072E0042A6FD0122A67D13A4B03F1240232E0282A37D014D8252A5ED101A8FFF74BFD019A0023013A510A500EE170520C022123706C
:400780006070A27023716371A171E37151E02A2A32D02F2A47D14CE02A4B224603F1100153F8040B8B4242F8040BF9D11B881380214A1068010C030A60730020A17023737C
:4007C000106036E053F8040B934244F8040BF9D12FE0DA058578C6780179D40D4079FAB9360446EA0565284340EA012101EB53201249FFF707FE13E003F14004E2058578F0
:40080000C6780179D40D407952B9360446EA0565284340EA012101EB53200849FFF7FCFC064B181906E0044B4FF4A4201860002000E002487CBD00BF681B00106519001099
:40084000D1290000F529000038B5858845B112482946FFF72FFE1148FFF72CFE002038BD448814B10E482146F3E74378FE2B02D0FF2B0CD104E0126801201470086038BDB1
:40088000C0880028EAD101F0B1F9012038BD0548FFF710FEDFE700BF072A000011270000162A0000252A000008B51348FFF702FE1248FFF7FFFD01F043F8202000F001FFD8
:4008C0000F4801F063F80F4A01200F4900F06AFE85200E4900F0BEFE0D49022000F0BAFE0C48FFF7E7FD0548FFF7E4FD012000F0E4FE00F075FFFCE7352A00001127000040
:40090000672A00006C1B001049080000511D0000FD1B00004C2A000008B50748FFF7CAFD0648FFF7C7FD0023054A002199500433782BF9D108BD00BFD62A00001127000095
:400940009C1B001008B5014B984708BDF11FFF1F10B5064B322499600549586018461C60DA60BDE81040FFF7EDBF00BF881B0010741B001010B5064B342499600549586041
:4009800018461C60DA60BDE81040FFF7DBBF00BF881B0010741B001070B5054672B61024134B53F8240081421DD2124E56F8241099B9204621462A46FFF7CAFF2A4620463C
:4009C0002146FFF7D7FF0C482146FFF773FD0B48FFF770FD012246F82420204621462A46FFF7B6FF02E001341E2CD9D162B670BD282C00009C1B0010102B00001127000082
:400A000038B5044672B6064833254160054905608260C3600461FFF795FF62B638BD00BF881B0010741B0010294B2DE9F0411C6804B91860274800230468934205D0264DBC
:400A4000CE5C2D19EE540133F7E705685D19B5F5007F056032D11E4C20482168DFF89480FFF728FD1E48FFF725FDD8F800004FF47A771C4E2168B0FBF7F0FFF78DFF3168BB
:400A800031B11948FFF716FD1548FFF713FDFEE7D8F800202168B2FBF7F02B460E4AFFF7AFFF316831B11148FFF704FD0C48FFF701FDFEE7074B2160196005E00C48FFF7B5
:400AC000F9FC0748FFF7F6FC0020BDE8F08100BF701B0010141E0010141C00102E2B000011270000741B0010512B00007F2B0000AC2B0000C800001008B572B6064A074B2C
:400B000007494FF48030C3F8C420886062B6054A1368984708BD00BFBE17180000C00F4000ED00E00400010010B50748074C102135234160816021460360FFF703FF20681C
:400B4000003018BF012010BD881B0010741B00103C23044A5069C10403D5013BF9D1FFF7CBBF704740C0092038B51148114DFFF7A1FC1148FFF79EFC2A684FF47A741020B2
:400B80001D21B2FBF4F2FFF7E3FE2B6810201D21B3FBF4F2FFF7EEFE0848016831B10848FFF788FC0448FFF785FCFEE738BD00BFE72B0000C800001011270000741B001094
:400BC000FA2B0000FEE7000008B5FFF7A9FA00230A4A0B499818884204D20A49585898500433F5E7084B094A934203D2002043F8040BF8E7FFF79EFCFEE700BFC8000010D7
:400C000044050010342D000044050010101F00101F28064B02D8D3F8A81102E0D3F8AC11203821FA00F000F00300704700C00F40064B10B51C68FFF7EBFF18B1032808BFB1
:400C4000082000E00420B4FBF0F010BDC8000010012908D1094B0A4AD3F8C41002400A43C3F8C420704741B9044A054BD2F8C4100B4023EA0003C2F8C430704700C00F40E0
:400C8000DEF7EFEF07B5002302A9012201F8013D134600F0CCFB9DF807000EBD07B502AB03F8011D01221946134600F09CFB0EBDF8B5404B0A24B1FBF3F20D46B2FBF4F19B
:400CC00004FB112707F13003D9B20646FFF7E6FF3948B5FBF0F2B2FBF4F104FB112707F130033046D9B2FFF7D9FF3448B5FBF0F2B2FBF4F104FB112707F130033046D9B207
:400D0000FFF7CCFF2E48B5FBF0F2B2FBF4F104FB112707F130033046D9B2FFF7BFFF2948B5FBF0F2B2FBF4F104FB112707F130033046D9B2FFF7B2FF42F21070B5FBF0F25C
:400D4000B2FBF4F104FB112707F130033046D9B2FFF7A4FF4FF47A70B5FBF0F2B2FBF4F104FB112707F130033046D9B2FFF796FF6420B5FBF0F2B2FBF4F104FB112707F1CF
:400D80003003D9B23046FFF789FFB5FBF4F7B7FBF4F004FB107230323046D1B2FFF77EFF04FB175404F130013046C9B2BDE8F840FFF774BF00CA9A3B00E1F5058096980052
:400DC00040420F00A0860100F8B542F210730A24B1FBF3F20D46B2FBF4F104FB112707F13003D9B20646FFF759FF4FF47A70B5FBF0F2B2FBF4F104FB112707F13003304683
:400E0000D9B2FFF74BFF6420B5FBF0F2B2FBF4F104FB112707F13003D9B23046FFF73EFFB5FBF4F7B7FBF4F000FB147230323046D1B2FFF733FF04FB175404F1300130466E
:400E4000C9B2BDE8F840FFF729BFF8B564230A24B1FBF3F20E46B2FBF4F104FB112505F13003D9B20746FFF719FFB6FBF4F5B5FBF4F000FB145230323846D1B2FFF70EFF2A
:400E800004FB156404F130013846C9B2BDE8F840FFF704BF38B505464C1E14F8011F19B12846FFF7FBFEF8E738BD000010B50446FFF7F0FF02492046BDE81040FFF7EABF03
:400EC000182D000070B50E460B490546FFF7E2FF0724A30026FA03F000F00F02092A8CBF02F1370102F13001013C2846E4B2FFF7D5FEFF2CEDD170BD1B2D000070B50E462E
:400F00000B490546FFF7C6FF0324A30046FA03F000F00F02092A8CBF02F1370102F13001013C2846E4B2FFF7B9FEFF2CEDD170BD1B2D000038B50D460C490446FFF7AAFFC2
:400F40002B09092B94BF03F1300103F137012046FFF7A4FE05F00F01092901D9373100E030312046BDE83840FFF798BE1B2D000030B585B000230222012504AC684604F8B5
:400F8000103D8DF804308DF803308DF801208DF8025000F05FF803208DF80100684600F059F8174C02A800F015FA4FF4E1310291204602A900F0BCF82046294600F057FA58
:400FC000104A114B114812491A600860114A124B124813491A600860124A134B134814491A600860134A144B144815491A600860144A154B154816491A60086005B030BDAB
:4010000000C00040950E0000181E0010AD0E00003C1E00109D0C0000201E0010350F0000241E0010FD0E0000301E0010C50E00001C1E00104B0E00002C1E0010C90D000006
:40104000381E0010B10C0000281E0010850C0000341E001070B543780278847851000F2B01D9103B01318D005B0005F18046032505FA03F504FA03F406F53032116821EA33
:40108000050141EA0406166042780378C5785B000F2A01D9103A01335200032606FA02F605FA02F20F4951F8234024EA0604224341F823200278417800790B4B012807D1BB
:4010C00000FA01F153F822400C4343F8224070BD012000FA01F153F8220020EA010043F8220070BD40C0024068C00240F0B50024E2B14FF0FF33057D05F02005EDB215B9AD
:40110000A3B1013BF7E78BB10D4601F110070B4613F8016B013A0670BB42C5EB040619461E4401D0002AF3D13446E1E72046F0BD2DE9F04FA34B044608209C428BB08B4605
:4011400016D0A1498C4208D101211020FFF780FD07210022217222720EE09C4A944208BF4FF0807004D09A48844225D14FF000700121FFF76DFD1FE09348057DEA0701D55C
:401180000378F9E7802680F830608F4B197D01F02002D0B20028F8D0002583F830505D601D731D621D7483F84C5083F8545083F850501A7E1B7D1DE00725002625722672B5
:4011C000237DDB0701D52378FAE7802184F83010227D02F02000C5B2002DF9D07C4B002684F830609C42666026732662227D08BF84F82460734E0620B442DBF800500BD0A1
:40120000714B08209C4207D0704930208C4203D06F4A944203D13220FFF70AFD07463E07380904960590DDE90423CDE908234FF0FF33079300220023CDE9022300260695FD
:401240004FF00108B1464FF0000CE246069A00236244DDE90801CDF804C000F04FFFB0F1004FDDF804C001D9404201314B1EB3F5803F09D2079A904206D202910021039168
:4012800000B307904646D1460AF1010AC245AC44DCD3079880B1069BDDE904015A1908F101080692DDE90823121843EB0103B8F1100FCDE90823C6D1DDE9020150EA0103B8
:4012C0004AD001E0D14646463809029F09EB0601A1FB0723039F704301FB0733002100F00DFF85428CBFC0EB0500C5EB000064235843B0FBF5F5022D2ED8207B324A40F060
:4013000080019442217313D1029B9DF80800C3F30722C1B222712170237B3601F0B209F00F0903F07F0240EA09062273A66216E0029F09F00F09C7F307239DF8087023712F
:40134000FAB22270207B49EA061600F07F01F6B2217384F8286005E01B498C4202D11A4A137B00E0237B9BF8050003F0C003012805D009D3022805D143F0020304E043F0C4
:40138000010301E043F003039BF8041079B1032908D0042909D0022914BF43F0080343F0180304E043F0280301E043F038039BF80620012A08BF43F00403D8B220730BB05C
:4013C000BDE8F08F00C00040000001400080094000C0094000224FF41653032103604171027182717047012BF0B504460E46154603D1BDE8F040FFF779BE0020B2B1237DCF
:4014000003F02003DBB28BB10D4601F110070B4613F8016B013A2670BB42C5EB000619461E4401D0002AF3D13046E7E7F0BD012B30B54FF0000316D1934216D04FF0FF344D
:40144000057D15F0010F02D17CB1013CF8E764B10478CC540133EFE7047D14F0010F04D00478CC5401339342F6D1184630BD012906D190F8302042F0800380F830307047C1
:401480004FF0000190F8302080F830107047000070B5094C094E25683168402DA8BF40252A46802000F034F93368216858194D1B3060256070BD00BF681E00106C1E00101A
:4014C00038B500285FD101F00401C9B200292DD02E4C0822214600F049F921782C48C1F3411250F822002B4B1860E3882A4803602A4803600BB1C90947D0294951F82230A0
:4015000033B1224D254C28462146224A984728B980200121BDE8384000F0F0B8E88822681D499042D4BF08600A6023E01A4D2A68002A23DD174C216800F018F90028E7DBDB
:40154000226829681318081A2360286000281CD10E480F490278C2F3411351F823201049226051F82330002BD2D00C49224698470028CDD0BDE83840FFF78ABF0A46BDE830
:40158000384000F0F3B88028F4D038BD601E0010501E00106C1E0010681E0010701E0010401E0010034B43F82010034941F82020704700BF401E0010501E0010044BD3F875
:4015C000002202408242F9D1C3F80802704700BF00C00050054B000440F4A06130221020C3F80822C3F81012FFF7E8BF00C0005010B50C46FFF7EEFF2004054B40F480749E
:401600001020C3F81042BDE81040FFF7D7BF00BF00C0005010B500F00F04C00940EA4404012202FA04F20A4BD3F844020243C3F844224FF48070C3F84842C3F84C12FFF7B2
:40164000BDFF44F040000021BDE81040FFF7D0BF00C0005000F00F03C00940EA430002220A4B90FBF2F243F82210012101FA00F0074BD3F834221043C3F83402D3F804224D
:4016800042F00401C3F80412704700BF7C1E001000C00050044B18600448D0F8042242F00801C0F804127047781E001000C0005040F08001D020FFF79BBF0146FE20FFF72F
:4016C00097BF0146F320FFF793BF000010B500F00F04C00940EA44042046FFF77BFF2104054C41F400732020C4F81032FFF766FFD4F81422D0B210BD00C00050C30943F002
:40170000400200F00F0042EA4000FFF771BF000038B500F00F03C009144640EA43009A00114B42F00202C3F82822C3F824420E4BD3F8282212F002020DD08A78CD78120457
:4017400042EA05620D782A434D78043142EA0522C3F81C22EBE7C3F82822FFF73BFFFA20FFF738FF204638BD00C0005038B500F00F03C0099C0040EA4300164B44F001048A
:40178000C3F82842D3F8205215F4006FFAD06B051CD5AC05A50D00242346AB420CD013F0030F04BF0B4CD4F8184211B19342B8BFCC54240A0133F0E706490022C1F828223B
:4017C000FFF708FFF220FFF705FF01E04FF0FF35284638BD00C000500146D820FFF708BF70B52B4CD4F80052E90712D5294801230668C4F8083266B1F520FFF7EBFE264919
:401800002020C4F81012FFF7D9FED4F81422D0B2B0472A0717D51E4C0823FE20C4F80832FFF7D8FE1D48C4F810022020FFF7C6FED4F8141211F01A0F05D0194A136813B1F0
:4018400001F0150098476B0721D5114D0424C5F808420024012000FA04F00D4DD5F83012084211D0C5F838022020FFF7A7FE0D4B601053F82030D5F814222BB140EAC411B4
:40188000C8B202F01F0198470134202CE2D170BD00C00050741E00100002F5000002FE00781E00107C1E001008B5224B1A6922F440201861196941F480221A61D86820F0A3
:4018C000405121F03002DA60D86840F0005141F01002DA60586820F0705159605A6842F0A050586003F55023D3F8C410124841F00042C3F8C4201A23C0F8F43F0146D1F808
:40190000F82F0D4B02F01A001A28F8D100204FF0FF31C3F80402C3F80812C3F82C02C3F83402C3F83812C3F84002FFF7CAFE012008BD00BF00C0024000C0005070470000E4
:4019400010B50E4CFFF7B0FF0D48FFF7A3FE00202146FFF77FFE80202146FFF77BFE00204021FFF757FE80204021FFF753FE00200449054AFFF716FE012010BDC1140000AA
:401980003D190000D5190000BC1E0010014B1860704700BFC81E00100D49F0B50968050AC6B20024087890B14F78AF420DD1B4420AD11960022D05BFC8788B780B7843EA2B
:4019C000002313600120F0BD01340918EAE7F0BDC81E00104D4B2DE9F0411B6804460D4617464BB9267806F01F06012E54D007D3022E40F0848062E098470028F2D081E0A3
:401A000060783B6809287AD8DFE800F00579797979090D79151C00201870587046E0A078FFF746FE6EE06088A1882A463B46BDE8F041FFF7B1BF364A012011781970286099
:401A4000BDE8F081A6780EB930461FE0314DFF272D68B8462978C1B16A78042A06D0052A06D0022A0ED195F805800BE0EF7809E0B04507D137B969792B79A87843EA0121B7
:401A8000FFF7C8FD28782D18E4E70120FFF7A4FE62881F490A7035E06378386823B10A2B06D00B2B2BD106E003704370022204E00021017016E062880ABB2A6022E0D7F8EF
:401AC00000806778012F0FD002D3032F17D10FE02079FFF7FBFD0022C0F3400188F8001088F801202E600DE0618841B9207903E0608820B920790121FFF700FE02E0002080
:401B0000BDE8F0810120BDE8F08100BFC41E0010CC1E0010C81E0010094A0A4910B593680C685268191B084B084C21EAE1711C6018735A609960064B0320187010BD00BFA9
:401B4000D41E0010F41E0010001F001055534253F81E0010064B93F90C20002A01DB986808B9852000E002200121FFF7C7BD00BFD41E001038B5194B194D1A4C997B03F1B6
:401B80000F002A682368FEF7CFFD0146286018B9FFF7E0FF01201CE0134A20681568A8420AD22D1A402D28BF40252A468520FFF7AFFD21686D1825600A4B0B4A1868116891
:401BC00088420AD1054B9A68904201D0FFF7C2FF0020BDE83840FFF79FBF38BDD41E0010FC1E0010D01E0010F41E0010024B00221A70FEF7ABBC00BFF81E001073B501F06F
:401C00000201CAB2002A40F095804B4C2378042B00F29080DFE803F0031762626900474C20222146FFF7A2FD1F28019062D1236843498B425ED1607B00285BD1A17B4A1EB0
:401C40000F2A1BD956E03F4C3F4923680A68934236D23E4DD21A29680220FFF787FD374B0646997B03F10F002A682368FEF75CFD286010BBFFF76EFF01201BE0314D324B53
:401C80002860186001AA04F10F000DF10303257BFEF762FC2D4908600028EBD00198002836DD15F0800F9DF803202FD082BBFFF751FF0220FFF730FF3CE020683118216066
:401CC000204A2148136801688B4233D11B4A9068834201D0FFF73EFF0020EBE700210A46FFF744FD0020207024E002200121FFF705FD1FE085200121FFF700FD02200121AF
:401D0000FFF7FCFC0C480421017013E0002ACED10A4B99688842CAD80B4A0749106010B19DF8030020B102220A70FFF723FF01E001230B707CBD00BFF81E0010D41E0010B8
:401D400055534243D01E0010F41E0010FC1E001038B511F0020518D10C4C2378032B07D0042B0CD0022B10D1BDE83840FFF702BF852007490D22FFF7CBFC257038BD852019
:401D80000121BDE83840FFF7B9BC38BDF81E0010001F00102DE9F041274C84B025680746D5F84841002C41D066681F2E1CDD234810B94FF0FF301FE04FF4C870039102927C
:401DC0000193AFF3008003990446029A019B0028EFD0D5F84861002060602660C5F84841C4F88801C4F88C01656847B9A81C013544F820106560002004B0BDE8F081012075
:401E000000FA05F0D4F8886104EB85080643022FC8F88820C4F88861C8F80831E6D1D4F88C3143EA0002C4F88C21DFE705F5A674C5F84841B8E700BF242D0000000000005B
:401E4000114B124A70B5981A831018D0591E02EB83040D4654F8042D01F00106904775B126B154F8040D8047013D08D054F8043D9847013D54F8041D8847013DF6D1BDE807
:401E8000704000F02DBC00BF4405001040050010F0B48407034600F08D80541E002A00F08780E507CEB211D41A4602F8016B13461546920710D0621E002C79D003F8016B84
:401EC00014469A071D4607D0013CEDE7034603F8016B9A071D46F7D1032C52D9CEB246EA06270F2C47EA07432DD9A4F1100217460F2FC2F300162B606B60AB60EB6005F17E
:401F0000100216D93EB1103F136053609360D36010320F2F0DD9203F02F11006136053609360D360136153619361D36120320F2FF1D8A4F1100222F00F0204F00F04103240
:401F4000032C15441DD9271F3E462A46032E42F8043BC7F380070DD927B1043E032E42F8043B07D9174647F8043B083E53603A1D032EF7D8231F23F00302131D04F0030484
:401F8000ED18ACB1C9B2EA432C1905F8011BA318A54203F001020BD01AB105F8011BA54206D02B4603F8011B69705D1CA542F8D1F0BC7047054614468EE700BFF0B4002A11
:401FC00000F0838041EA000313F003052ED0551E03780A78934226D1002D7AD0002B7AD001358C1C4D192B1BDB0716D510F8013F14F8012C934216D1CC1C73B936E0AC42E3
:4020000034D00134002B31D014F8012C10F8013F0134934207D1002B28D010F8013F14F8012C9342EBD0981AF0BC7047032ACED904680B689C42CAD1131F4CD0A4F101324D
:4020400022EA040414F0803F43D15A072FD542684C6804300431A24239D1043B06D0A2F1013424EA020212F0803F20D00020DBE772686468A2F10135A24225EA020526D179
:40208000043B00F1040001F10401EFD015F0803FECD1DCF804207C68A2F10135A24225EA020514D1043BE1D015F0803FDED10C46064604310430032B84460F46D8D85D1E4F
:4020C000002B85D133792279ADE71046ACE75D1E7EE72846A8E71846A6E700BF024B13B1024800F005B8704700000000411E00000146002002460346FFF74CBE4BB942B9FF
:40210000002908BF002802D04FF0FF31084600F03BB882B0EC462DE9005000F01DF8DDF804E002B00CBC70472DE9F0411646984604460D4600F02AF806FB01FCA6FB00236A
:4021400000FB08C7FB18A21A65EB0303069CC4E90023BDE8F08100BF2DE9F041904606460F461D4600F070F900FB05F3A0FB084508FB0138069B4544341B67EB0505C3E917
:402180000045BDE8F08100BF704700BF00292DE9F00F1D46C0F29D800024002DC0F2948080460F4694461E46E3BB8A4255D9B2FA82F747B1C7F1200520FA05F601FA07F115
:4021C000BA40B8403143170CB1FBF7F61FFA82FC07FB16110CFB06F5030C43EA01439D4208D9711E9B1880F013819D4240F21081023E9B18591BB1FBF7F507FB15130CFBA3
:4022000005FC80B240EA03418C4507D96B1E8A1880F00081944540F2FD80023D45EA0641002503E08B420CD9002529460A462B4614B1524263EB430310461946BDE8F00F9E
:402240007047B3FA83F5002D40F087808B4201D38242EAD800250121E8E712B90126B6FBF2F2B2FA82F6002E39D18E1A130C1FFA82FC0125B6FBF3F703FB17610CFB07F863
:402280004FEA104949EA0146B04506D9791EB61802D2B04500F2D3800F46C8EB0606B6FBF3F103FB11630CFB01FC80B240EA03439C4506D94E1E9A1802D2944500F2C2804B
:4022C000314641EA0741B1E7E443524263EB430366E7404261EB41014FF0FF345DE7B240C6F1200921FA09F720FA09F901FA06F1130CB7FBF3F81FFA82FC03FB18770CFB18
:4023000008F549EA01094FEA194141EA0747B040BD420AD9BF1808F1FF3680F08E80BD4240F28B80A8F10208BF18791BB1FBF3F503FB15170CFB05F61FFA89F949EA0741E2
:402340008E4206D96F1E891871D28E426FD9023D89188E1B45EA08458CE7C5F1200122FA01F306FA05F627FA01F207FA05F720FA01F11E434FEA1649B2FBF9F81FFA86FA7E
:4023800009FB18220AFB08FB0F433B0C43EA024293450CFA05FC08D9921908F1FF314AD2934548D9A8F102089219CBEB0203B3FBF9F109FB11320AFB01FABFB247EA024355
:4023C0009A4506D94A1E9B1933D29A4531D902399B1941EA08410F0C1FFA8CF808FB07F68AB24FEA1C4C08FB02F80CFB02620CFB07FC02EB1842964288BF0CF5803CCAEBD3
:4024000003030CEB124C63450ED305D000250DE70E46EFE61D4601E700FA05F01FFA88F808EB0245A842F1D201390025FEE63D468FE71146CDE78846B7E7B04675E7023FA1
:40244000B6182AE702393CE72DE9F007144605460E46002B3DD18A4249D9B2FA82F747B1C7F1200120FA01F206FA07F6BC40BD401643220CB6FBF2F0A1B202FB106601FB1D
:4024800000F32F0C47EA0646B34208D9471E361980F0FA80B34240F2F78002383619F61AB6FBF2F302FB136201FB03F1ADB245EA0242914207D95E1E121980F0E7809142F8
:4024C00040F2E480023B43EA00400021BDE8F00770478B4243D8B3FA83F4002C42D18B4202D3824200F2E18000210120EEE712B90127B7FBF2F4B4FA84F2002A40F08980FB
:402500000A1B230CA7B20121B2FBF3F603FB162207FB06F04FEA154C4CEA0242904207D9121906F1FF3C02D2904200F2D0806646121AB2FBF3F003FB102307FB00F7ADB20C
:4025400045EA03439F4207D9421E1B1980F0A0809F4240F29D80023840EA0640B6E700210846B3E7C4F1200622FA06F703FA04F321FA06F501FA04F120FA06F63B434FEAC6
:40258000134CB5FBFCF71FFA83F80CFB175508FB07F946EA010A4FEA1A4141EA0545A94502FA04F204D97E1EED18C0F081803746C9EB0501B1FBFCF60CFB161508FB06F8B4
:4025C0001FFA8AFA4AEA0541884503D9751EC91874D32E4646EA0746370C1FFA82FC0CFB07F5120CB3B20CFB03FC02FB035302FB07F203EB1C439D4288BF02F58032C8EBF1
:40260000010102EB134291424CD343D0304600215CE79440C2F1200521FA05F620FA05F501FA02F1230CB6FBF3FCA7B203FB1C6607FB0CF829430D0C45EA0646B04500FA16
:4026400002F508D936190CF1FF303ED2B0453CD9ACF1020C3619C8EB0602B2FBF3F003FB102607FB00F889B241EA0642904506D9461E121927D2904525D902381219C8EBA5
:40268000020240EA0C413FE7384608E733461AE7104661E700FA04F01FFA8CFC0CEB03439842B3D2701E002110E7214620460DE7A9457FF67CAF023FED1879E7884588D900
:4026C000023EC91886E73046D9E78446C3E7023E12192DE7F8B500BFF8BC08BC9E467047F8B500BFF8BC08BC9E467047446973616C6C6F77696E6720777269746520746F5A
:402700002074686520626F6F7420736563746F72000D0A004D6F64696679696E67207468652046415420697473656C66004D6F64696679696E67206469726563746F727959
:4027400020656E7472792025640049524D574152450046756467696E672074686520666972737420636C757374657220666F7220257300466F756E642061205646415420AB
:402780006C6F6E672066696C65206E616D6520656E7472792E2E2E0025303278200066696C656E616D653A2025732C20617474726962757465733A20307825782C2066696D
:4027C00072737420636C75737465723A2025642C2073697A653A20256400446574656374696E672061206669726D77617265207772697465206E6F74207374617274696E1B
:40280000672066726F6D20666972737420636C7573746572202D2061646A757374696E67206F666673657400417474656D7074696E6720746F207772697465206174206234
:402840006567696E6E696E67206F6620666C61736820616674657220666978696E67206F66667365742C206261696C696E6721004164647265737320307825303278206117
:402880006C7265616479207772697474656E2C20626C6F636B696E67207365636F6E6420777269746500EB3C904D53444F53352E300002400100011000EC03F802000100E0
:4028C00001000000000000000000000000000000000000000000000000000000000000000000000000000000000000000000000000000000000000000000000000000000D7
:40290000496E76616C696420434244206C656E202865787065637465642025642921005445535420554E495420524541445900524551554553542053454E53452028253062
:4029400036582900464F524D415420554E4954202530325800494E51554952590052454144204341504143495459005245414431302C204C42413D25642C206C656E3D2572
:402980006400575249544531302C204C42413D25642C206C656E3D25640056455249465931300042595443484B206E6F7420737570706F7274656400556E68616E646C65F4
:4029C0006420534353493A2000060A0A00100C0000008005021F0000004C504355534220204D6173732073746F7261676520202020302E31207000FF000000000A00000091
:402A000000FFFF00000000496E76616C69642069647820255800496E76616C69642076616C20255800556E68616E646C656420636C61737300496E697469616C6973696EC2
:402A4000672055534220737461636B005374617274696E672055534220636F6D6D756E69636174696F6E001201000200000040FFFF03000001010203010902200001010038
:402A8000C032090400000208065000070585024000000705020240000004030904100344006500760042006F0061007200643028034C005000430031003700350039002036
:402AC0000042006F006F0074006C006F00610064006500720000436C656172696E67206572617375726520737461747573206F6620616C6C20736563746F727320746F2037
:402B0000616C6C6F7720726577726974696E6700507265706172656420616E642065726173656420736563746F722025640077726974696E6720746F207573657220666C30
:402B40006173682061646472657373203078257800436F756C646E2774207072657061726520666C61736820736563746F72202D2063616E2774207265636F76657200462B
:402B80006C617368207772697465206661696C65642028636F646520256429202D2063616E2774207265636F766572006275666665726564206461746120746F2077726926
:402BC000746520756E74696C207765206861766520612066756C6C20736563746F72277320776F7274680045726173696E67207573657220666C61736800556E61626C65D1
:402C000020746F206572617365207573657220666C617368202D2063616E2774207265636F76657200000000FF0F0000FF1F0000FF2F0000FF3F0000FF4F0000FF5F0000C0
:402C4000FF6F0000FF7F0000FF8F0000FF9F0000FFAF0000FFBF0000FFCF0000FFDF0000FFEF0000FFFF0000FF7F0100FFFF0100FF7F0200FFFF0200FF7F0300FFFF0300B8
:402C8000FF7F0400FFFF0400FF7F0500FFFF0500FF7F0600FFFF0600FF7F0700FFFF0700000000000010000000200000003000000040000000500000006000000070000038
:402CC000008000000090000000A0000000B0000000C0000000D0000000E0000000F00000000001000080010000000200008002000000030000800300000004000080040000
:402D00000000050000800500000006000080060000000700008007000A0D00307800000043000000100100100000000060F4FF7F0100000000E1F5054C5043313735392049
:402D40002020202800000000000000000000000000000000000000004649524D5741524542494E2018BC41973738373800003D6E2B38020000D00700000000000000000004
:402D8000FC03001064040010CC040010000000000000000000000000000000000000000000000000000000000000000000000000202D00000000000000000000000000005F
:402DC00000000000000000000000000000000000000000000000000000000000000000000000000000000000000000000000000000000000000000000000000000000000D3
:402E000000000000000000000000000000000000000000000000000000000000000000000000000001000000000000000E33CDAB34126DE6ECDE05000B0000000000000065
:402E40000000000000000000000000000000000000000000000000000000000000000000000000000000000000000000000000000000000000000000000000000000000052
:402E80000000000000000000000000000000000000000000000000000000000000000000000000000000000000000000000000000000000000000000000000000000000012
:402EC00000000000000000000000000000000000000000000000000000000000000000000000000000000000000000000000000000000000000000000000000000000000D2
:402F00000000000000000000000000000000000000000000000000000000000000000000000000000000000000000000000000000000000000000000000000000000000091
:402F40000000000000000000000000000000000000000000000000000000000000000000000000000000000000000000000000000000000000000000000000000000000051
:402F80000000000000000000000000000000000000000000000000000000000000000000000000000000000000000000000000000000000000000000000000000000000011
:402FC00000000000000000000000000000000000000000000000000000000000000000000000000000000000000000000000000000000000000000000000000000000000D1
:403000000000000000000000000000000000000000000000000000000000000000000000000000000000000000000000000000000000000000000000000000000000000090
:403040000000000000000000000000000000000000000000000000000000000000000000000000000000000000000000000000000000000000000000000000000000000050
:403080000000000000000000000000000000000000000000000000000000000000000000000000000000000000000000000000000000000000000000000000000000000010
:4030C00000000000000000000000000000000000000000000000000000000000000000000000000000000000000000000000000000000000000000000000000000000000D0
:40310000000000000000000000000000000000000000000000000000000000000000000000000000000000000000000000000000000000000000000000000000000000008F
:40314000000000000000000000000000000000000000000000000000000000000000000000000000000000000000000000000000000000000000000000000000000000004F
:40318000000000000000000000000000000000000000000000000000000000000000000000000000DD200000F1000000CD000000FFFFFFFFFFFFFFFFFFFFFFFFFFFFFFFF64
:4031C000FFFFFFFFFFFFFFFFFFFFFFFFFFFFFFFFFFFFFFFFFFFFFFFFFFFFFFFFFFFFFFFFFFFFFFFFFFFFFFFFFFFFFFFFFFFFFFFFFFFFFFFFFFFFFFFFFFFFFFFFFFFFFFFF0F
:40320000FFFFFFFFFFFFFFFFFFFFFFFFFFFFFFFFFFFFFFFFFFFFFFFFFFFFFFFFFFFFFFFFFFFFFFFFFFFFFFFFFFFFFFFFFFFFFFFFFFFFFFFFFFFFFFFFFFFFFFFFFFFFFFFFCE
:40324000FFFFFFFFFFFFFFFFFFFFFFFFFFFFFFFFFFFFFFFFFFFFFFFFFFFFFFFFFFFFFFFFFFFFFFFFFFFFFFFFFFFFFFFFFFFFFFFFFFFFFFFFFFFFFFFFFFFFFFFFFFFFFFFF8E
:40328000FFFFFFFFFFFFFFFFFFFFFFFFFFFFFFFFFFFFFFFFFFFFFFFFFFFFFFFFFFFFFFFFFFFFFFFFFFFFFFFFFFFFFFFFFFFFFFFFFFFFFFFFFFFFFFFFFFFFFFFFFFFFFFFF4E
:00000001FF
